{
  "_format": "hh-sol-artifact-1",
  "contractName": "Upload",
  "sourceName": "contracts/Upload.sol",
  "abi": [
    {
      "anonymous": false,
      "inputs": [
        {
          "indexed": true,
          "internalType": "address",
          "name": "owner",
          "type": "address"
        },
        {
          "indexed": true,
          "internalType": "address",
          "name": "user",
          "type": "address"
        },
        {
          "indexed": false,
          "internalType": "uint256",
          "name": "timestamp",
          "type": "uint256"
        }
      ],
      "name": "AccessGranted",
      "type": "event"
    },
    {
      "anonymous": false,
      "inputs": [
        {
          "indexed": true,
          "internalType": "address",
          "name": "owner",
          "type": "address"
        },
        {
          "indexed": true,
          "internalType": "address",
          "name": "user",
          "type": "address"
        },
        {
          "indexed": false,
          "internalType": "uint256",
          "name": "timestamp",
          "type": "uint256"
        }
      ],
      "name": "AccessRevoked",
      "type": "event"
    },
    {
      "anonymous": false,
      "inputs": [
        {
          "indexed": true,
          "internalType": "address",
          "name": "user",
          "type": "address"
        },
        {
          "indexed": false,
          "internalType": "uint256",
          "name": "fileId",
          "type": "uint256"
        },
        {
          "indexed": false,
          "internalType": "string",
          "name": "name",
          "type": "string"
        },
        {
          "indexed": false,
          "internalType": "uint256",
          "name": "timestamp",
          "type": "uint256"
        }
      ],
      "name": "FileAdded",
      "type": "event"
    },
    {
      "anonymous": false,
      "inputs": [
        {
          "indexed": true,
          "internalType": "address",
          "name": "user",
          "type": "address"
        },
        {
          "indexed": false,
          "internalType": "uint256",
          "name": "fileId",
          "type": "uint256"
        }
      ],
      "name": "FileRemoved",
      "type": "event"
    },
    {
      "anonymous": false,
      "inputs": [
        {
          "indexed": true,
          "internalType": "address",
          "name": "owner",
          "type": "address"
        },
        {
          "indexed": true,
          "internalType": "address",
          "name": "user",
          "type": "address"
        },
        {
          "indexed": false,
          "internalType": "uint256",
          "name": "fileId",
          "type": "uint256"
        }
      ],
      "name": "FileShared",
      "type": "event"
    },
    {
      "inputs": [
        {
          "internalType": "string",
          "name": "url",
          "type": "string"
        },
        {
          "internalType": "string",
          "name": "name",
          "type": "string"
        },
        {
          "internalType": "string",
          "name": "fileType",
          "type": "string"
        },
        {
          "internalType": "uint256",
          "name": "size",
          "type": "uint256"
        }
      ],
      "name": "addFile",
      "outputs": [],
      "stateMutability": "nonpayable",
      "type": "function"
    },
    {
      "inputs": [
        {
          "internalType": "address[]",
          "name": "_users",
          "type": "address[]"
        }
      ],
      "name": "batchGrantAccess",
      "outputs": [],
      "stateMutability": "nonpayable",
      "type": "function"
    },
    {
      "inputs": [
        {
          "internalType": "address[]",
          "name": "_users",
          "type": "address[]"
        }
      ],
      "name": "batchRevokeAccess",
      "outputs": [],
      "stateMutability": "nonpayable",
      "type": "function"
    },
    {
      "inputs": [
        {
          "internalType": "address",
          "name": "_owner",
          "type": "address"
        },
        {
          "internalType": "address",
          "name": "_user",
          "type": "address"
        }
      ],
      "name": "checkAccess",
      "outputs": [
        {
          "internalType": "bool",
          "name": "",
          "type": "bool"
        }
      ],
      "stateMutability": "view",
      "type": "function"
    },
    {
      "inputs": [],
      "name": "getAccessList",
      "outputs": [
        {
          "components": [
            {
              "internalType": "address",
              "name": "user",
              "type": "address"
            },
            {
              "internalType": "bool",
              "name": "access",
              "type": "bool"
            },
            {
              "internalType": "uint256",
              "name": "grantedAt",
              "type": "uint256"
            }
          ],
          "internalType": "struct Upload.Access[]",
          "name": "",
          "type": "tuple[]"
        }
      ],
      "stateMutability": "view",
      "type": "function"
    },
    {
      "inputs": [
        {
          "internalType": "address",
          "name": "_user",
          "type": "address"
        },
        {
          "internalType": "uint256",
          "name": "_fileId",
          "type": "uint256"
        }
      ],
      "name": "getFile",
      "outputs": [
        {
          "components": [
            {
              "internalType": "string",
              "name": "url",
              "type": "string"
            },
            {
              "internalType": "string",
              "name": "name",
              "type": "string"
            },
            {
              "internalType": "string",
              "name": "fileType",
              "type": "string"
            },
            {
              "internalType": "uint256",
              "name": "timestamp",
              "type": "uint256"
            },
            {
              "internalType": "uint256",
              "name": "size",
              "type": "uint256"
            },
            {
              "internalType": "bool",
              "name": "isDeleted",
              "type": "bool"
            }
          ],
          "internalType": "struct Upload.File",
          "name": "",
          "type": "tuple"
        }
      ],
      "stateMutability": "view",
      "type": "function"
    },
    {
      "inputs": [
        {
          "internalType": "address",
          "name": "_user",
          "type": "address"
        }
      ],
      "name": "getFileCount",
      "outputs": [
        {
          "internalType": "uint256",
          "name": "",
          "type": "uint256"
        }
      ],
      "stateMutability": "view",
      "type": "function"
    },
    {
      "inputs": [
        {
          "internalType": "address",
          "name": "_user",
          "type": "address"
        }
      ],
      "name": "getFiles",
      "outputs": [
        {
          "components": [
            {
              "internalType": "string",
              "name": "url",
              "type": "string"
            },
            {
              "internalType": "string",
              "name": "name",
              "type": "string"
            },
            {
              "internalType": "string",
              "name": "fileType",
              "type": "string"
            },
            {
              "internalType": "uint256",
              "name": "timestamp",
              "type": "uint256"
            },
            {
              "internalType": "uint256",
              "name": "size",
              "type": "uint256"
            },
            {
              "internalType": "bool",
              "name": "isDeleted",
              "type": "bool"
            }
          ],
          "internalType": "struct Upload.File[]",
          "name": "",
          "type": "tuple[]"
        }
      ],
      "stateMutability": "view",
      "type": "function"
    },
    {
      "inputs": [
        {
          "internalType": "address",
          "name": "_user",
          "type": "address"
        }
      ],
      "name": "grantAccess",
      "outputs": [],
      "stateMutability": "nonpayable",
      "type": "function"
    },
    {
      "inputs": [
        {
          "internalType": "address",
          "name": "",
          "type": "address"
        },
        {
          "internalType": "address",
          "name": "",
          "type": "address"
        }
      ],
      "name": "hasAccess",
      "outputs": [
        {
          "internalType": "bool",
          "name": "",
          "type": "bool"
        }
      ],
      "stateMutability": "view",
      "type": "function"
    },
    {
      "inputs": [
        {
          "internalType": "uint256",
          "name": "_fileId",
          "type": "uint256"
        }
      ],
      "name": "removeFile",
      "outputs": [],
      "stateMutability": "nonpayable",
      "type": "function"
    },
    {
      "inputs": [
        {
          "internalType": "address",
          "name": "_user",
          "type": "address"
        }
      ],
      "name": "revokeAccess",
      "outputs": [],
      "stateMutability": "nonpayable",
      "type": "function"
    },
    {
      "inputs": [
        {
          "internalType": "uint256",
          "name": "_fileId",
          "type": "uint256"
        },
        {
          "internalType": "string",
          "name": "_newUrl",
          "type": "string"
        },
        {
          "internalType": "string",
          "name": "_newName",
          "type": "string"
        }
      ],
      "name": "updateFile",
      "outputs": [],
      "stateMutability": "nonpayable",
      "type": "function"
    }
  ],
  "bytecode": "0x608060405234801561000f575f80fd5b50611a928061001d5f395ff3fe608060405234801561000f575f80fd5b50600436106100cb575f3560e01c80637a359ccd116100885780638d5ddbb3116100635780638d5ddbb3146101b85780639926b03f146101cd578063bfeb1633146101e0578063fa001d7b14610200575f80fd5b80637a359ccd1461017f57806385e68531146101925780638896e425146101a5575f80fd5b80630ae5e739146100cf5780631709ef07146100e457806342451fcb14610126578063433bf37b1461013957806362e1f745146101595780636a6e1cb31461016c575b5f80fd5b6100e26100dd366004611407565b610221565b005b6101116100f2366004611427565b600160209081525f928352604080842090915290825290205460ff1681565b60405190151581526020015b60405180910390f35b6100e261013436600461149d565b6104e0565b61014c610147366004611407565b6105c9565b60405161011d91906115fc565b610111610167366004611427565b61089f565b6100e261017a36600461149d565b6108ce565b6100e261018d3660046116ca565b6109ce565b6100e26101a0366004611407565b610ae1565b6100e26101b3366004611754565b610c72565b6101c0610dd2565b60405161011d91906117bc565b6100e26101db36600461181f565b610e64565b6101f36101ee366004611836565b610f88565b60405161011d919061185e565b61021361020e366004611407565b611324565b60405190815260200161011d565b6001600160a01b03811661026e5760405162461bcd60e51b815260206004820152600f60248201526e496e76616c6964206164647265737360881b60448201526064015b60405180910390fd5b336001600160a01b038216036102c65760405162461bcd60e51b815260206004820152601f60248201527f43616e6e6f74206772616e742061636365737320746f20796f757273656c66006044820152606401610265565b335f8181526001602081815260408084206001600160a01b038716808652908352818520805460ff19169094179093559383526003815283832091835252205460ff1615610403575f5b335f908152600260205260409020548110156103fd57335f90815260026020526040902080546001600160a01b03841691908390811061035257610352611870565b5f9182526020909120600290910201546001600160a01b0316036103f557335f9081526002602052604090208054600191908390811061039457610394611870565b5f91825260208083206002928302018054941515600160a01b0260ff60a01b1990951694909417909355338252909152604090208054429190839081106103dd576103dd611870565b905f5260205f209060020201600101819055506103fd565b600101610310565b5061049c565b335f81815260026020818152604080842081516060810183526001600160a01b0388811680835260018387018181524285880190815286548084018855968b52888b20955196909902909401805494511515600160a01b026001600160a81b03199095169590931694909417929092178155945194820194909455948452600382528084209284529190529020805460ff191690911790555b6040514281526001600160a01b0382169033907f65d0cc1e52d49938ca4ad9f423c79c1b84d914b9a683fbc5d3f93ac3cc5635f5906020015b60405180910390a350565b5f5b81518110156105c557335f908152600160205260408120835190919084908490811061051057610510611870565b6020908102919091018101516001600160a01b031682528101919091526040015f205460ff16156105bd57306001600160a01b03166385e6853183838151811061055c5761055c611870565b60200260200101516040518263ffffffff1660e01b815260040161058f91906001600160a01b0391909116815260200190565b5f604051808303815f87803b1580156105a6575f80fd5b505af11580156105b8573d5f803e3d5ffd5b505050505b6001016104e2565b5050565b60606001600160a01b03821633148061060457506001600160a01b0382165f90815260016020908152604080832033845290915290205460ff165b61065c5760405162461bcd60e51b8152602060048201526024808201527f596f7520646f6e277420686176652061636365737320746f2074686573652066604482015263696c657360e01b6064820152608401610265565b6001600160a01b0382165f9081526020818152604080832080548251818502810185019093528083529193909284015b82821015610894578382905f5260205f2090600602016040518060c00160405290815f820180546106bc90611884565b80601f01602080910402602001604051908101604052809291908181526020018280546106e890611884565b80156107335780601f1061070a57610100808354040283529160200191610733565b820191905f5260205f20905b81548152906001019060200180831161071657829003601f168201915b5050505050815260200160018201805461074c90611884565b80601f016020809104026020016040519081016040528092919081815260200182805461077890611884565b80156107c35780601f1061079a576101008083540402835291602001916107c3565b820191905f5260205f20905b8154815290600101906020018083116107a657829003601f168201915b505050505081526020016002820180546107dc90611884565b80601f016020809104026020016040519081016040528092919081815260200182805461080890611884565b80156108535780601f1061082a57610100808354040283529160200191610853565b820191905f5260205f20905b81548152906001019060200180831161083657829003601f168201915b505050918352505060038201546020808301919091526004830154604083015260059092015460ff161515606090910152908252600192909201910161068c565b505050509050919050565b6001600160a01b038083165f9081526001602090815260408083209385168352929052205460ff165b92915050565b5f5b81518110156105c557336001600160a01b03168282815181106108f5576108f5611870565b60200260200101516001600160a01b03161415801561093f57505f6001600160a01b031682828151811061092b5761092b611870565b60200260200101516001600160a01b031614155b156109c657306001600160a01b0316630ae5e73983838151811061096557610965611870565b60200260200101516040518263ffffffff1660e01b815260040161099891906001600160a01b0391909116815260200190565b5f604051808303815f87803b1580156109af575f80fd5b505af11580156109c1573d5f803e3d5ffd5b505050505b6001016108d0565b335f90815260208181526040808320815160c0810183528881528084018890529182018690524260608301526080820185905260a082018490528054600181018255908452919092208251600690920201908190610a2c9082611908565b5060208201516001820190610a419082611908565b5060408201516002820190610a569082611908565b50606082015160038201556080820151600482015560a0909101516005909101805460ff1916911515919091179055335f818152602081905260409020547fe964d6ef4dc5a2724e736aafd0d84a3f776758919ea858dd8da5bd2367c6e7c490610ac2906001906119dc565b8542604051610ad3939291906119ef565b60405180910390a250505050565b335f9081526001602090815260408083206001600160a01b038516845290915290205460ff16610b535760405162461bcd60e51b815260206004820152601860248201527f5573657220646f65736e277420686176652061636365737300000000000000006044820152606401610265565b335f9081526001602090815260408083206001600160a01b03851684529091528120805460ff191690555b335f90815260026020526040902054811015610c3457335f90815260026020526040902080546001600160a01b038416919083908110610bc057610bc0611870565b5f9182526020909120600290910201546001600160a01b031603610c2c57335f908152600260205260408120805483908110610bfe57610bfe611870565b5f91825260209091206002909102018054911515600160a01b0260ff60a01b19909216919091179055610c34565b600101610b7e565b506040514281526001600160a01b0382169033907f6f6a404ffd2cea4713256a4fd9ce99c8cf8cf32d85c2bb8061d1603ff57d50c3906020016104d5565b335f908152602081905260409020548310610c9f5760405162461bcd60e51b815260040161026590611a17565b335f908152602081905260409020805484908110610cbf57610cbf611870565b5f91825260209091206005600690920201015460ff1615610d1a5760405162461bcd60e51b8152602060048201526015602482015274119a5b19481a185cc81899595b8819195b195d1959605a1b6044820152606401610265565b335f908152602081905260409020805483919085908110610d3d57610d3d611870565b905f5260205f2090600602015f019081610d579190611908565b50335f908152602081905260409020805482919085908110610d7b57610d7b611870565b905f5260205f2090600602016001019081610d969190611908565b50335f908152602081905260409020805442919085908110610dba57610dba611870565b905f5260205f20906006020160030181905550505050565b335f908152600260209081526040808320805482518185028101850190935280835260609492939192909184015b82821015610e5b575f848152602090819020604080516060810182526002860290920180546001600160a01b0381168452600160a01b900460ff16151583850152600190810154918301919091529083529092019101610e00565b50505050905090565b335f908152602081905260409020548110610e915760405162461bcd60e51b815260040161026590611a17565b335f908152602081905260409020805482908110610eb157610eb1611870565b5f91825260209091206005600690920201015460ff1615610f0b5760405162461bcd60e51b8152602060048201526014602482015273119a5b1948185b1c9958591e4819195b195d195960621b6044820152606401610265565b335f90815260208190526040902080546001919083908110610f2f57610f2f611870565b5f918252602091829020600690910201600501805460ff19169215159290921790915560405182815233917f9bdfc616f8d66684206a96d723683e9370e718e7ccf00ad6bf94a8adf5efdf9c910160405180910390a250565b610fc06040518060c001604052806060815260200160608152602001606081526020015f81526020015f81526020015f151581525090565b6001600160a01b038316331480610ff957506001600160a01b0383165f90815260016020908152604080832033845290915290205460ff165b6110505760405162461bcd60e51b815260206004820152602260248201527f596f7520646f6e277420686176652061636365737320746f20746869732066696044820152616c6560f01b6064820152608401610265565b6001600160a01b0383165f9081526020819052604090205482106110865760405162461bcd60e51b815260040161026590611a17565b6001600160a01b0383165f9081526020819052604090208054839081106110af576110af611870565b5f91825260209091206005600690920201015460ff161561110a5760405162461bcd60e51b8152602060048201526015602482015274119a5b19481a185cc81899595b8819195b195d1959605a1b6044820152606401610265565b6001600160a01b0383165f90815260208190526040902080548390811061113357611133611870565b905f5260205f2090600602016040518060c00160405290815f8201805461115990611884565b80601f016020809104026020016040519081016040528092919081815260200182805461118590611884565b80156111d05780601f106111a7576101008083540402835291602001916111d0565b820191905f5260205f20905b8154815290600101906020018083116111b357829003601f168201915b505050505081526020016001820180546111e990611884565b80601f016020809104026020016040519081016040528092919081815260200182805461121590611884565b80156112605780601f1061123757610100808354040283529160200191611260565b820191905f5260205f20905b81548152906001019060200180831161124357829003601f168201915b5050505050815260200160028201805461127990611884565b80601f01602080910402602001604051908101604052809291908181526020018280546112a590611884565b80156112f05780601f106112c7576101008083540402835291602001916112f0565b820191905f5260205f20905b8154815290600101906020018083116112d357829003601f168201915b5050509183525050600382015460208201526004820154604082015260059091015460ff1615156060909101529392505050565b5f6001600160a01b03821633148061135e57506001600160a01b0382165f90815260016020908152604080832033845290915290205460ff165b156113e5575f805b6001600160a01b0384165f908152602081905260409020548110156113de576001600160a01b0384165f9081526020819052604090208054829081106113ae576113ae611870565b5f91825260209091206005600690920201015460ff166113d657816113d281611a44565b9250505b600101611366565b5092915050565b505f919050565b80356001600160a01b0381168114611402575f80fd5b919050565b5f60208284031215611417575f80fd5b611420826113ec565b9392505050565b5f8060408385031215611438575f80fd5b611441836113ec565b915061144f602084016113ec565b90509250929050565b634e487b7160e01b5f52604160045260245ffd5b604051601f8201601f1916810167ffffffffffffffff8111828210171561149557611495611458565b604052919050565b5f60208083850312156114ae575f80fd5b823567ffffffffffffffff808211156114c5575f80fd5b818501915085601f8301126114d8575f80fd5b8135818111156114ea576114ea611458565b8060051b91506114fb84830161146c565b8181529183018401918481019088841115611514575f80fd5b938501935b838510156115395761152a856113ec565b82529385019390850190611519565b98975050505050505050565b5f81518084525f5b818110156115695760208185018101518683018201520161154d565b505f602082860101526020601f19601f83011685010191505092915050565b5f815160c0845261159c60c0850182611545565b9050602083015184820360208601526115b58282611545565b915050604083015184820360408601526115cf8282611545565b915050606083015160608501526080830151608085015260a0830151151560a08501528091505092915050565b5f60208083016020845280855180835260408601915060408160051b8701019250602087015f5b8281101561165157603f1988860301845261163f858351611588565b94509285019290850190600101611623565b5092979650505050505050565b5f82601f83011261166d575f80fd5b813567ffffffffffffffff81111561168757611687611458565b61169a601f8201601f191660200161146c565b8181528460208386010111156116ae575f80fd5b816020850160208301375f918101602001919091529392505050565b5f805f80608085870312156116dd575f80fd5b843567ffffffffffffffff808211156116f4575f80fd5b6117008883890161165e565b95506020870135915080821115611715575f80fd5b6117218883890161165e565b94506040870135915080821115611736575f80fd5b506117438782880161165e565b949793965093946060013593505050565b5f805f60608486031215611766575f80fd5b83359250602084013567ffffffffffffffff80821115611784575f80fd5b6117908783880161165e565b935060408601359150808211156117a5575f80fd5b506117b28682870161165e565b9150509250925092565b602080825282518282018190525f919060409081850190868401855b8281101561181257815180516001600160a01b031685528681015115158786015285015185850152606090930192908501906001016117d8565b5091979650505050505050565b5f6020828403121561182f575f80fd5b5035919050565b5f8060408385031215611847575f80fd5b611850836113ec565b946020939093013593505050565b602081525f6114206020830184611588565b634e487b7160e01b5f52603260045260245ffd5b600181811c9082168061189857607f821691505b6020821081036118b657634e487b7160e01b5f52602260045260245ffd5b50919050565b601f82111561190357805f5260205f20601f840160051c810160208510156118e15750805b601f840160051c820191505b81811015611900575f81556001016118ed565b50505b505050565b815167ffffffffffffffff81111561192257611922611458565b611936816119308454611884565b846118bc565b602080601f831160018114611969575f84156119525750858301515b5f19600386901b1c1916600185901b1785556119c0565b5f85815260208120601f198616915b8281101561199757888601518255948401946001909101908401611978565b50858210156119b457878501515f19600388901b60f8161c191681555b505060018460011b0185555b505050505050565b634e487b7160e01b5f52601160045260245ffd5b818103818111156108c8576108c86119c8565b838152606060208201525f611a076060830185611545565b9050826040830152949350505050565b602080825260139082015272119a5b1948191bd95cc81b9bdd08195e1a5cdd606a1b604082015260600190565b5f60018201611a5557611a556119c8565b506001019056fea2646970667358221220f91e15ed33338a9dd382ff6fa9b4fe8015f005cdb1df8fd8ed35f243489c87b864736f6c63430008180033",
  "linkReferences": {},
  "deployedLinkReferences": {}
}