{
  "_format": "hh-sol-artifact-1",
  "contractName": "Upload",
  "sourceName": "contracts/Upload.sol",
  "abi": [
    {
      "anonymous": false,
      "inputs": [
        {
          "indexed": true,
          "internalType": "address",
          "name": "owner",
          "type": "address"
        },
        {
          "indexed": true,
          "internalType": "address",
          "name": "user",
          "type": "address"
        },
        {
          "indexed": false,
          "internalType": "uint256",
          "name": "timestamp",
          "type": "uint256"
        }
      ],
      "name": "AccessGranted",
      "type": "event"
    },
    {
      "anonymous": false,
      "inputs": [
        {
          "indexed": true,
          "internalType": "address",
          "name": "owner",
          "type": "address"
        },
        {
          "indexed": true,
          "internalType": "address",
          "name": "user",
          "type": "address"
        },
        {
          "indexed": false,
          "internalType": "uint256",
          "name": "timestamp",
          "type": "uint256"
        }
      ],
      "name": "AccessRevoked",
      "type": "event"
    },
    {
      "anonymous": false,
      "inputs": [
        {
          "indexed": true,
          "internalType": "address",
          "name": "user",
          "type": "address"
        },
        {
          "indexed": false,
          "internalType": "uint256",
          "name": "fileId",
          "type": "uint256"
        },
        {
          "indexed": false,
          "internalType": "string",
          "name": "name",
          "type": "string"
        },
        {
          "indexed": false,
          "internalType": "uint256",
          "name": "timestamp",
          "type": "uint256"
        }
      ],
      "name": "FileAdded",
      "type": "event"
    },
    {
      "anonymous": false,
      "inputs": [
        {
          "indexed": true,
          "internalType": "address",
          "name": "user",
          "type": "address"
        },
        {
          "indexed": false,
          "internalType": "uint256",
          "name": "fileId",
          "type": "uint256"
        }
      ],
      "name": "FileRemoved",
      "type": "event"
    },
    {
      "anonymous": false,
      "inputs": [
        {
          "indexed": true,
          "internalType": "address",
          "name": "owner",
          "type": "address"
        },
        {
          "indexed": true,
          "internalType": "address",
          "name": "user",
          "type": "address"
        },
        {
          "indexed": false,
          "internalType": "uint256",
          "name": "fileId",
          "type": "uint256"
        }
      ],
      "name": "FileShared",
      "type": "event"
    },
    {
      "inputs": [
        {
          "internalType": "string",
          "name": "url",
          "type": "string"
        },
        {
          "internalType": "string",
          "name": "name",
          "type": "string"
        },
        {
          "internalType": "string",
          "name": "fileType",
          "type": "string"
        },
        {
          "internalType": "uint256",
          "name": "size",
          "type": "uint256"
        }
      ],
      "name": "addFile",
      "outputs": [],
      "stateMutability": "nonpayable",
      "type": "function"
    },
    {
      "inputs": [
        {
          "internalType": "address[]",
          "name": "_users",
          "type": "address[]"
        }
      ],
      "name": "batchGrantAccess",
      "outputs": [],
      "stateMutability": "nonpayable",
      "type": "function"
    },
    {
      "inputs": [
        {
          "internalType": "address[]",
          "name": "_users",
          "type": "address[]"
        }
      ],
      "name": "batchRevokeAccess",
      "outputs": [],
      "stateMutability": "nonpayable",
      "type": "function"
    },
    {
      "inputs": [
        {
          "internalType": "address",
          "name": "_owner",
          "type": "address"
        },
        {
          "internalType": "address",
          "name": "_user",
          "type": "address"
        }
      ],
      "name": "checkAccess",
      "outputs": [
        {
          "internalType": "bool",
          "name": "",
          "type": "bool"
        }
      ],
      "stateMutability": "view",
      "type": "function"
    },
    {
      "inputs": [],
      "name": "getAccessList",
      "outputs": [
        {
          "components": [
            {
              "internalType": "address",
              "name": "user",
              "type": "address"
            },
            {
              "internalType": "bool",
              "name": "access",
              "type": "bool"
            },
            {
              "internalType": "uint256",
              "name": "grantedAt",
              "type": "uint256"
            }
          ],
          "internalType": "struct Upload.Access[]",
          "name": "",
          "type": "tuple[]"
        }
      ],
      "stateMutability": "view",
      "type": "function"
    },
    {
      "inputs": [
        {
          "internalType": "address",
          "name": "_user",
          "type": "address"
        },
        {
          "internalType": "uint256",
          "name": "_fileId",
          "type": "uint256"
        }
      ],
      "name": "getFile",
      "outputs": [
        {
          "components": [
            {
              "internalType": "string",
              "name": "url",
              "type": "string"
            },
            {
              "internalType": "string",
              "name": "name",
              "type": "string"
            },
            {
              "internalType": "string",
              "name": "fileType",
              "type": "string"
            },
            {
              "internalType": "uint256",
              "name": "timestamp",
              "type": "uint256"
            },
            {
              "internalType": "uint256",
              "name": "size",
              "type": "uint256"
            },
            {
              "internalType": "bool",
              "name": "isDeleted",
              "type": "bool"
            }
          ],
          "internalType": "struct Upload.File",
          "name": "",
          "type": "tuple"
        }
      ],
      "stateMutability": "view",
      "type": "function"
    },
    {
      "inputs": [
        {
          "internalType": "address",
          "name": "_user",
          "type": "address"
        }
      ],
      "name": "getFileCount",
      "outputs": [
        {
          "internalType": "uint256",
          "name": "",
          "type": "uint256"
        }
      ],
      "stateMutability": "view",
      "type": "function"
    },
    {
      "inputs": [
        {
          "internalType": "address",
          "name": "_user",
          "type": "address"
        }
      ],
      "name": "getFiles",
      "outputs": [
        {
          "components": [
            {
              "internalType": "string",
              "name": "url",
              "type": "string"
            },
            {
              "internalType": "string",
              "name": "name",
              "type": "string"
            },
            {
              "internalType": "string",
              "name": "fileType",
              "type": "string"
            },
            {
              "internalType": "uint256",
              "name": "timestamp",
              "type": "uint256"
            },
            {
              "internalType": "uint256",
              "name": "size",
              "type": "uint256"
            },
            {
              "internalType": "bool",
              "name": "isDeleted",
              "type": "bool"
            }
          ],
          "internalType": "struct Upload.File[]",
          "name": "",
          "type": "tuple[]"
        }
      ],
      "stateMutability": "view",
      "type": "function"
    },
    {
      "inputs": [
        {
          "internalType": "address",
          "name": "_user",
          "type": "address"
        }
      ],
      "name": "grantAccess",
      "outputs": [],
      "stateMutability": "nonpayable",
      "type": "function"
    },
    {
      "inputs": [
        {
          "internalType": "address",
          "name": "",
          "type": "address"
        },
        {
          "internalType": "address",
          "name": "",
          "type": "address"
        }
      ],
      "name": "hasAccess",
      "outputs": [
        {
          "internalType": "bool",
          "name": "",
          "type": "bool"
        }
      ],
      "stateMutability": "view",
      "type": "function"
    },
    {
      "inputs": [
        {
          "internalType": "uint256",
          "name": "_fileId",
          "type": "uint256"
        }
      ],
      "name": "removeFile",
      "outputs": [],
      "stateMutability": "nonpayable",
      "type": "function"
    },
    {
      "inputs": [
        {
          "internalType": "address",
          "name": "_user",
          "type": "address"
        }
      ],
      "name": "revokeAccess",
      "outputs": [],
      "stateMutability": "nonpayable",
      "type": "function"
    },
    {
      "inputs": [
        {
          "internalType": "uint256",
          "name": "_fileId",
          "type": "uint256"
        },
        {
          "internalType": "string",
          "name": "_newUrl",
          "type": "string"
        },
        {
          "internalType": "string",
          "name": "_newName",
          "type": "string"
        }
      ],
      "name": "updateFile",
      "outputs": [],
      "stateMutability": "nonpayable",
      "type": "function"
    }
  ],
  "bytecode": "0x6080604052348015600f57600080fd5b506132598061001f6000396000f3fe608060405234801561001057600080fd5b50600436106100cf5760003560e01c80637a359ccd1161008c5780638d5ddbb3116100665780638d5ddbb31461020c5780639926b03f1461022a578063bfeb163314610246578063fa001d7b14610276576100cf565b80637a359ccd146101b857806385e68531146101d45780638896e425146101f0576100cf565b80630ae5e739146100d45780631709ef07146100f057806342451fcb14610120578063433bf37b1461013c57806362e1f7451461016c5780636a6e1cb31461019c575b600080fd5b6100ee60048036038101906100e9919061210d565b6102a6565b005b61010a6004803603810190610105919061213a565b6108af565b6040516101179190612195565b60405180910390f35b61013a60048036038101906101359190612309565b6108de565b005b6101566004803603810190610151919061210d565b610a2a565b6040516101639190612552565b60405180910390f35b6101866004803603810190610181919061213a565b610dab565b6040516101939190612195565b60405180910390f35b6101b660048036038101906101b19190612309565b610e3f565b005b6101d260048036038101906101cd9190612655565b610f84565b005b6101ee60048036038101906101e9919061210d565b611138565b005b61020a60048036038101906102059190612710565b61148e565b005b610214611709565b604051610221919061289b565b60405180910390f35b610244600480360381019061023f91906128bd565b611820565b005b610260600480360381019061025b91906128ea565b611a1d565b60405161026d91906129c1565b60405180910390f35b610290600480360381019061028b919061210d565b611eac565b60405161029d91906129f2565b60405180910390f35b600073ffffffffffffffffffffffffffffffffffffffff168173ffffffffffffffffffffffffffffffffffffffff1603610315576040517f08c379a000000000000000000000000000000000000000000000000000000000815260040161030c90612a6a565b60405180910390fd5b3373ffffffffffffffffffffffffffffffffffffffff168173ffffffffffffffffffffffffffffffffffffffff1603610383576040517f08c379a000000000000000000000000000000000000000000000000000000000815260040161037a90612ad6565b60405180910390fd5b60018060003373ffffffffffffffffffffffffffffffffffffffff1673ffffffffffffffffffffffffffffffffffffffff16815260200190815260200160002060008373ffffffffffffffffffffffffffffffffffffffff1673ffffffffffffffffffffffffffffffffffffffff16815260200190815260200160002060006101000a81548160ff021916908315150217905550600360003373ffffffffffffffffffffffffffffffffffffffff1673ffffffffffffffffffffffffffffffffffffffff16815260200190815260200160002060008273ffffffffffffffffffffffffffffffffffffffff1673ffffffffffffffffffffffffffffffffffffffff16815260200190815260200160002060009054906101000a900460ff16156106a25760005b600260003373ffffffffffffffffffffffffffffffffffffffff1673ffffffffffffffffffffffffffffffffffffffff1681526020019081526020016000208054905081101561069c578173ffffffffffffffffffffffffffffffffffffffff16600260003373ffffffffffffffffffffffffffffffffffffffff1673ffffffffffffffffffffffffffffffffffffffff168152602001908152602001600020828154811061055b5761055a612af6565b5b906000526020600020906002020160000160009054906101000a900473ffffffffffffffffffffffffffffffffffffffff1673ffffffffffffffffffffffffffffffffffffffff160361068f576001600260003373ffffffffffffffffffffffffffffffffffffffff1673ffffffffffffffffffffffffffffffffffffffff16815260200190815260200160002082815481106105fb576105fa612af6565b5b906000526020600020906002020160000160146101000a81548160ff02191690831515021790555042600260003373ffffffffffffffffffffffffffffffffffffffff1673ffffffffffffffffffffffffffffffffffffffff168152602001908152602001600020828154811061067557610674612af6565b5b90600052602060002090600202016001018190555061069c565b80806001019150506104a9565b50610847565b600260003373ffffffffffffffffffffffffffffffffffffffff1673ffffffffffffffffffffffffffffffffffffffff16815260200190815260200160002060405180606001604052808373ffffffffffffffffffffffffffffffffffffffff16815260200160011515815260200142815250908060018154018082558091505060019003906000526020600020906002020160009091909190915060008201518160000160006101000a81548173ffffffffffffffffffffffffffffffffffffffff021916908373ffffffffffffffffffffffffffffffffffffffff16021790555060208201518160000160146101000a81548160ff0219169083151502179055506040820151816001015550506001600360003373ffffffffffffffffffffffffffffffffffffffff1673ffffffffffffffffffffffffffffffffffffffff16815260200190815260200160002060008373ffffffffffffffffffffffffffffffffffffffff1673ffffffffffffffffffffffffffffffffffffffff16815260200190815260200160002060006101000a81548160ff0219169083151502179055505b8073ffffffffffffffffffffffffffffffffffffffff163373ffffffffffffffffffffffffffffffffffffffff167f65d0cc1e52d49938ca4ad9f423c79c1b84d914b9a683fbc5d3f93ac3cc5635f5426040516108a491906129f2565b60405180910390a350565b60016020528160005260406000206020528060005260406000206000915091509054906101000a900460ff1681565b60005b8151811015610a2657600160003373ffffffffffffffffffffffffffffffffffffffff1673ffffffffffffffffffffffffffffffffffffffff168152602001908152602001600020600083838151811061093e5761093d612af6565b5b602002602001015173ffffffffffffffffffffffffffffffffffffffff1673ffffffffffffffffffffffffffffffffffffffff16815260200190815260200160002060009054906101000a900460ff1615610a19573073ffffffffffffffffffffffffffffffffffffffff166385e685318383815181106109c2576109c1612af6565b5b60200260200101516040518263ffffffff1660e01b81526004016109e69190612b34565b600060405180830381600087803b158015610a0057600080fd5b505af1158015610a14573d6000803e3d6000fd5b505050505b80806001019150506108e1565b5050565b60603373ffffffffffffffffffffffffffffffffffffffff168273ffffffffffffffffffffffffffffffffffffffff161480610aec5750600160008373ffffffffffffffffffffffffffffffffffffffff1673ffffffffffffffffffffffffffffffffffffffff16815260200190815260200160002060003373ffffffffffffffffffffffffffffffffffffffff1673ffffffffffffffffffffffffffffffffffffffff16815260200190815260200160002060009054906101000a900460ff165b610b2b576040517f08c379a0000000000000000000000000000000000000000000000000000000008152600401610b2290612bc1565b60405180910390fd5b6000808373ffffffffffffffffffffffffffffffffffffffff1673ffffffffffffffffffffffffffffffffffffffff168152602001908152602001600020805480602002602001604051908101604052809291908181526020016000905b82821015610da057838290600052602060002090600602016040518060c0016040529081600082018054610bbc90612c10565b80601f0160208091040260200160405190810160405280929190818152602001828054610be890612c10565b8015610c355780601f10610c0a57610100808354040283529160200191610c35565b820191906000526020600020905b815481529060010190602001808311610c1857829003601f168201915b50505050508152602001600182018054610c4e90612c10565b80601f0160208091040260200160405190810160405280929190818152602001828054610c7a90612c10565b8015610cc75780601f10610c9c57610100808354040283529160200191610cc7565b820191906000526020600020905b815481529060010190602001808311610caa57829003601f168201915b50505050508152602001600282018054610ce090612c10565b80601f0160208091040260200160405190810160405280929190818152602001828054610d0c90612c10565b8015610d595780601f10610d2e57610100808354040283529160200191610d59565b820191906000526020600020905b815481529060010190602001808311610d3c57829003601f168201915b5050505050815260200160038201548152602001600482015481526020016005820160009054906101000a900460ff16151515158152505081526020019060010190610b89565b505050509050919050565b6000600160008473ffffffffffffffffffffffffffffffffffffffff1673ffffffffffffffffffffffffffffffffffffffff16815260200190815260200160002060008373ffffffffffffffffffffffffffffffffffffffff1673ffffffffffffffffffffffffffffffffffffffff16815260200190815260200160002060009054906101000a900460ff16905092915050565b60005b8151811015610f80573373ffffffffffffffffffffffffffffffffffffffff16828281518110610e7557610e74612af6565b5b602002602001015173ffffffffffffffffffffffffffffffffffffffff1614158015610ee85750600073ffffffffffffffffffffffffffffffffffffffff16828281518110610ec757610ec6612af6565b5b602002602001015173ffffffffffffffffffffffffffffffffffffffff1614155b15610f73573073ffffffffffffffffffffffffffffffffffffffff16630ae5e739838381518110610f1c57610f1b612af6565b5b60200260200101516040518263ffffffff1660e01b8152600401610f409190612b34565b600060405180830381600087803b158015610f5a57600080fd5b505af1158015610f6e573d6000803e3d6000fd5b505050505b8080600101915050610e42565b5050565b6000803373ffffffffffffffffffffffffffffffffffffffff1673ffffffffffffffffffffffffffffffffffffffff1681526020019081526020016000206040518060c0016040528086815260200185815260200184815260200142815260200183815260200160001515815250908060018154018082558091505060019003906000526020600020906006020160009091909190915060008201518160000190816110309190612ded565b5060208201518160010190816110469190612ded565b50604082015181600201908161105c9190612ded565b50606082015181600301556080820151816004015560a08201518160050160006101000a81548160ff02191690831515021790555050503373ffffffffffffffffffffffffffffffffffffffff167fe964d6ef4dc5a2724e736aafd0d84a3f776758919ea858dd8da5bd2367c6e7c460016000803373ffffffffffffffffffffffffffffffffffffffff1673ffffffffffffffffffffffffffffffffffffffff168152602001908152602001600020805490506111199190612eee565b854260405161112a93929190612f5b565b60405180910390a250505050565b600160003373ffffffffffffffffffffffffffffffffffffffff1673ffffffffffffffffffffffffffffffffffffffff16815260200190815260200160002060008273ffffffffffffffffffffffffffffffffffffffff1673ffffffffffffffffffffffffffffffffffffffff16815260200190815260200160002060009054906101000a900460ff16611201576040517f08c379a00000000000000000000000000000000000000000000000000000000081526004016111f890612fe5565b60405180910390fd5b6000600160003373ffffffffffffffffffffffffffffffffffffffff1673ffffffffffffffffffffffffffffffffffffffff16815260200190815260200160002060008373ffffffffffffffffffffffffffffffffffffffff1673ffffffffffffffffffffffffffffffffffffffff16815260200190815260200160002060006101000a81548160ff02191690831515021790555060005b600260003373ffffffffffffffffffffffffffffffffffffffff1673ffffffffffffffffffffffffffffffffffffffff16815260200190815260200160002080549050811015611425578173ffffffffffffffffffffffffffffffffffffffff16600260003373ffffffffffffffffffffffffffffffffffffffff1673ffffffffffffffffffffffffffffffffffffffff168152602001908152602001600020828154811061134b5761134a612af6565b5b906000526020600020906002020160000160009054906101000a900473ffffffffffffffffffffffffffffffffffffffff1673ffffffffffffffffffffffffffffffffffffffff1603611418576000600260003373ffffffffffffffffffffffffffffffffffffffff1673ffffffffffffffffffffffffffffffffffffffff16815260200190815260200160002082815481106113eb576113ea612af6565b5b906000526020600020906002020160000160146101000a81548160ff021916908315150217905550611425565b8080600101915050611299565b508073ffffffffffffffffffffffffffffffffffffffff163373ffffffffffffffffffffffffffffffffffffffff167f6f6a404ffd2cea4713256a4fd9ce99c8cf8cf32d85c2bb8061d1603ff57d50c34260405161148391906129f2565b60405180910390a350565b6000803373ffffffffffffffffffffffffffffffffffffffff1673ffffffffffffffffffffffffffffffffffffffff168152602001908152602001600020805490508310611511576040517f08c379a000000000000000000000000000000000000000000000000000000000815260040161150890613051565b60405180910390fd5b6000803373ffffffffffffffffffffffffffffffffffffffff1673ffffffffffffffffffffffffffffffffffffffff168152602001908152602001600020838154811061156157611560612af6565b5b906000526020600020906006020160050160009054906101000a900460ff16156115c0576040517f08c379a00000000000000000000000000000000000000000000000000000000081526004016115b7906130bd565b60405180910390fd5b816000803373ffffffffffffffffffffffffffffffffffffffff1673ffffffffffffffffffffffffffffffffffffffff168152602001908152602001600020848154811061161157611610612af6565b5b9060005260206000209060060201600001908161162e9190612ded565b50806000803373ffffffffffffffffffffffffffffffffffffffff1673ffffffffffffffffffffffffffffffffffffffff16815260200190815260200160002084815481106116805761167f612af6565b5b9060005260206000209060060201600101908161169d9190612ded565b50426000803373ffffffffffffffffffffffffffffffffffffffff1673ffffffffffffffffffffffffffffffffffffffff16815260200190815260200160002084815481106116ef576116ee612af6565b5b906000526020600020906006020160030181905550505050565b6060600260003373ffffffffffffffffffffffffffffffffffffffff1673ffffffffffffffffffffffffffffffffffffffff168152602001908152602001600020805480602002602001604051908101604052809291908181526020016000905b8282101561181757838290600052602060002090600202016040518060600160405290816000820160009054906101000a900473ffffffffffffffffffffffffffffffffffffffff1673ffffffffffffffffffffffffffffffffffffffff1673ffffffffffffffffffffffffffffffffffffffff1681526020016000820160149054906101000a900460ff161515151581526020016001820154815250508152602001906001019061176a565b50505050905090565b6000803373ffffffffffffffffffffffffffffffffffffffff1673ffffffffffffffffffffffffffffffffffffffff1681526020019081526020016000208054905081106118a3576040517f08c379a000000000000000000000000000000000000000000000000000000000815260040161189a90613051565b60405180910390fd5b6000803373ffffffffffffffffffffffffffffffffffffffff1673ffffffffffffffffffffffffffffffffffffffff16815260200190815260200160002081815481106118f3576118f2612af6565b5b906000526020600020906006020160050160009054906101000a900460ff1615611952576040517f08c379a000000000000000000000000000000000000000000000000000000000815260040161194990613129565b60405180910390fd5b60016000803373ffffffffffffffffffffffffffffffffffffffff1673ffffffffffffffffffffffffffffffffffffffff16815260200190815260200160002082815481106119a4576119a3612af6565b5b906000526020600020906006020160050160006101000a81548160ff0219169083151502179055503373ffffffffffffffffffffffffffffffffffffffff167f9bdfc616f8d66684206a96d723683e9370e718e7ccf00ad6bf94a8adf5efdf9c82604051611a1291906129f2565b60405180910390a250565b611a25612063565b3373ffffffffffffffffffffffffffffffffffffffff168373ffffffffffffffffffffffffffffffffffffffff161480611ae55750600160008473ffffffffffffffffffffffffffffffffffffffff1673ffffffffffffffffffffffffffffffffffffffff16815260200190815260200160002060003373ffffffffffffffffffffffffffffffffffffffff1673ffffffffffffffffffffffffffffffffffffffff16815260200190815260200160002060009054906101000a900460ff165b611b24576040517f08c379a0000000000000000000000000000000000000000000000000000000008152600401611b1b906131bb565b60405180910390fd5b6000808473ffffffffffffffffffffffffffffffffffffffff1673ffffffffffffffffffffffffffffffffffffffff168152602001908152602001600020805490508210611ba7576040517f08c379a0000000000000000000000000000000000000000000000000000000008152600401611b9e90613051565b60405180910390fd5b6000808473ffffffffffffffffffffffffffffffffffffffff1673ffffffffffffffffffffffffffffffffffffffff1681526020019081526020016000208281548110611bf757611bf6612af6565b5b906000526020600020906006020160050160009054906101000a900460ff1615611c56576040517f08c379a0000000000000000000000000000000000000000000000000000000008152600401611c4d906130bd565b60405180910390fd5b6000808473ffffffffffffffffffffffffffffffffffffffff1673ffffffffffffffffffffffffffffffffffffffff1681526020019081526020016000208281548110611ca657611ca5612af6565b5b90600052602060002090600602016040518060c0016040529081600082018054611ccf90612c10565b80601f0160208091040260200160405190810160405280929190818152602001828054611cfb90612c10565b8015611d485780601f10611d1d57610100808354040283529160200191611d48565b820191906000526020600020905b815481529060010190602001808311611d2b57829003601f168201915b50505050508152602001600182018054611d6190612c10565b80601f0160208091040260200160405190810160405280929190818152602001828054611d8d90612c10565b8015611dda5780601f10611daf57610100808354040283529160200191611dda565b820191906000526020600020905b815481529060010190602001808311611dbd57829003601f168201915b50505050508152602001600282018054611df390612c10565b80601f0160208091040260200160405190810160405280929190818152602001828054611e1f90612c10565b8015611e6c5780601f10611e4157610100808354040283529160200191611e6c565b820191906000526020600020905b815481529060010190602001808311611e4f57829003601f168201915b5050505050815260200160038201548152602001600482015481526020016005820160009054906101000a900460ff161515151581525050905092915050565b60003373ffffffffffffffffffffffffffffffffffffffff168273ffffffffffffffffffffffffffffffffffffffff161480611f6e5750600160008373ffffffffffffffffffffffffffffffffffffffff1673ffffffffffffffffffffffffffffffffffffffff16815260200190815260200160002060003373ffffffffffffffffffffffffffffffffffffffff1673ffffffffffffffffffffffffffffffffffffffff16815260200190815260200160002060009054906101000a900460ff165b15612059576000805b6000808573ffffffffffffffffffffffffffffffffffffffff1673ffffffffffffffffffffffffffffffffffffffff1681526020019081526020016000208054905081101561204f576000808573ffffffffffffffffffffffffffffffffffffffff1673ffffffffffffffffffffffffffffffffffffffff16815260200190815260200160002081815481106120105761200f612af6565b5b906000526020600020906006020160050160009054906101000a900460ff1661204257818061203e906131db565b9250505b8080600101915050611f77565b508091505061205e565b600090505b919050565b6040518060c0016040528060608152602001606081526020016060815260200160008152602001600081526020016000151581525090565b6000604051905090565b600080fd5b600080fd5b600073ffffffffffffffffffffffffffffffffffffffff82169050919050565b60006120da826120af565b9050919050565b6120ea816120cf565b81146120f557600080fd5b50565b600081359050612107816120e1565b92915050565b600060208284031215612123576121226120a5565b5b6000612131848285016120f8565b91505092915050565b60008060408385031215612151576121506120a5565b5b600061215f858286016120f8565b9250506020612170858286016120f8565b9150509250929050565b60008115159050919050565b61218f8161217a565b82525050565b60006020820190506121aa6000830184612186565b92915050565b600080fd5b6000601f19601f8301169050919050565b7f4e487b7100000000000000000000000000000000000000000000000000000000600052604160045260246000fd5b6121fe826121b5565b810181811067ffffffffffffffff8211171561221d5761221c6121c6565b5b80604052505050565b600061223061209b565b905061223c82826121f5565b919050565b600067ffffffffffffffff82111561225c5761225b6121c6565b5b602082029050602081019050919050565b600080fd5b600061228561228084612241565b612226565b905080838252602082019050602084028301858111156122a8576122a761226d565b5b835b818110156122d157806122bd88826120f8565b8452602084019350506020810190506122aa565b5050509392505050565b600082601f8301126122f0576122ef6121b0565b5b8135612300848260208601612272565b91505092915050565b60006020828403121561231f5761231e6120a5565b5b600082013567ffffffffffffffff81111561233d5761233c6120aa565b5b612349848285016122db565b91505092915050565b600081519050919050565b600082825260208201905092915050565b6000819050602082019050919050565b600081519050919050565b600082825260208201905092915050565b60005b838110156123b857808201518184015260208101905061239d565b60008484015250505050565b60006123cf8261237e565b6123d98185612389565b93506123e981856020860161239a565b6123f2816121b5565b840191505092915050565b6000819050919050565b612410816123fd565b82525050565b61241f8161217a565b82525050565b600060c083016000830151848203600086015261244282826123c4565b9150506020830151848203602086015261245c82826123c4565b9150506040830151848203604086015261247682826123c4565b915050606083015161248b6060860182612407565b50608083015161249e6080860182612407565b5060a08301516124b160a0860182612416565b508091505092915050565b60006124c88383612425565b905092915050565b6000602082019050919050565b60006124e882612352565b6124f2818561235d565b9350836020820285016125048561236e565b8060005b85811015612540578484038952815161252185826124bc565b945061252c836124d0565b925060208a01995050600181019050612508565b50829750879550505050505092915050565b6000602082019050818103600083015261256c81846124dd565b905092915050565b600080fd5b600067ffffffffffffffff821115612594576125936121c6565b5b61259d826121b5565b9050602081019050919050565b82818337600083830152505050565b60006125cc6125c784612579565b612226565b9050828152602081018484840111156125e8576125e7612574565b5b6125f38482856125aa565b509392505050565b600082601f8301126126105761260f6121b0565b5b81356126208482602086016125b9565b91505092915050565b612632816123fd565b811461263d57600080fd5b50565b60008135905061264f81612629565b92915050565b6000806000806080858703121561266f5761266e6120a5565b5b600085013567ffffffffffffffff81111561268d5761268c6120aa565b5b612699878288016125fb565b945050602085013567ffffffffffffffff8111156126ba576126b96120aa565b5b6126c6878288016125fb565b935050604085013567ffffffffffffffff8111156126e7576126e66120aa565b5b6126f3878288016125fb565b925050606061270487828801612640565b91505092959194509250565b600080600060608486031215612729576127286120a5565b5b600061273786828701612640565b935050602084013567ffffffffffffffff811115612758576127576120aa565b5b612764868287016125fb565b925050604084013567ffffffffffffffff811115612785576127846120aa565b5b612791868287016125fb565b9150509250925092565b600081519050919050565b600082825260208201905092915050565b6000819050602082019050919050565b6127d0816120cf565b82525050565b6060820160008201516127ec60008501826127c7565b5060208201516127ff6020850182612416565b5060408201516128126040850182612407565b50505050565b600061282483836127d6565b60608301905092915050565b6000602082019050919050565b60006128488261279b565b61285281856127a6565b935061285d836127b7565b8060005b8381101561288e5781516128758882612818565b975061288083612830565b925050600181019050612861565b5085935050505092915050565b600060208201905081810360008301526128b5818461283d565b905092915050565b6000602082840312156128d3576128d26120a5565b5b60006128e184828501612640565b91505092915050565b60008060408385031215612901576129006120a5565b5b600061290f858286016120f8565b925050602061292085828601612640565b9150509250929050565b600060c083016000830151848203600086015261294782826123c4565b9150506020830151848203602086015261296182826123c4565b9150506040830151848203604086015261297b82826123c4565b91505060608301516129906060860182612407565b5060808301516129a36080860182612407565b5060a08301516129b660a0860182612416565b508091505092915050565b600060208201905081810360008301526129db818461292a565b905092915050565b6129ec816123fd565b82525050565b6000602082019050612a0760008301846129e3565b92915050565b600082825260208201905092915050565b7f496e76616c696420616464726573730000000000000000000000000000000000600082015250565b6000612a54600f83612a0d565b9150612a5f82612a1e565b602082019050919050565b60006020820190508181036000830152612a8381612a47565b9050919050565b7f43616e6e6f74206772616e742061636365737320746f20796f757273656c6600600082015250565b6000612ac0601f83612a0d565b9150612acb82612a8a565b602082019050919050565b60006020820190508181036000830152612aef81612ab3565b9050919050565b7f4e487b7100000000000000000000000000000000000000000000000000000000600052603260045260246000fd5b612b2e816120cf565b82525050565b6000602082019050612b496000830184612b25565b92915050565b7f596f7520646f6e277420686176652061636365737320746f207468657365206660008201527f696c657300000000000000000000000000000000000000000000000000000000602082015250565b6000612bab602483612a0d565b9150612bb682612b4f565b604082019050919050565b60006020820190508181036000830152612bda81612b9e565b9050919050565b7f4e487b7100000000000000000000000000000000000000000000000000000000600052602260045260246000fd5b60006002820490506001821680612c2857607f821691505b602082108103612c3b57612c3a612be1565b5b50919050565b60008190508160005260206000209050919050565b60006020601f8301049050919050565b600082821b905092915050565b600060088302612ca37fffffffffffffffffffffffffffffffffffffffffffffffffffffffffffffffff82612c66565b612cad8683612c66565b95508019841693508086168417925050509392505050565b6000819050919050565b6000612cea612ce5612ce0846123fd565b612cc5565b6123fd565b9050919050565b6000819050919050565b612d0483612ccf565b612d18612d1082612cf1565b848454612c73565b825550505050565b600090565b612d2d612d20565b612d38818484612cfb565b505050565b5b81811015612d5c57612d51600082612d25565b600181019050612d3e565b5050565b601f821115612da157612d7281612c41565b612d7b84612c56565b81016020851015612d8a578190505b612d9e612d9685612c56565b830182612d3d565b50505b505050565b600082821c905092915050565b6000612dc460001984600802612da6565b1980831691505092915050565b6000612ddd8383612db3565b9150826002028217905092915050565b612df68261237e565b67ffffffffffffffff811115612e0f57612e0e6121c6565b5b612e198254612c10565b612e24828285612d60565b600060209050601f831160018114612e575760008415612e45578287015190505b612e4f8582612dd1565b865550612eb7565b601f198416612e6586612c41565b60005b82811015612e8d57848901518255600182019150602085019450602081019050612e68565b86831015612eaa5784890151612ea6601f891682612db3565b8355505b6001600288020188555050505b505050505050565b7f4e487b7100000000000000000000000000000000000000000000000000000000600052601160045260246000fd5b6000612ef9826123fd565b9150612f04836123fd565b9250828203905081811115612f1c57612f1b612ebf565b5b92915050565b6000612f2d8261237e565b612f378185612a0d565b9350612f4781856020860161239a565b612f50816121b5565b840191505092915050565b6000606082019050612f7060008301866129e3565b8181036020830152612f828185612f22565b9050612f9160408301846129e3565b949350505050565b7f5573657220646f65736e27742068617665206163636573730000000000000000600082015250565b6000612fcf601883612a0d565b9150612fda82612f99565b602082019050919050565b60006020820190508181036000830152612ffe81612fc2565b9050919050565b7f46696c6520646f6573206e6f7420657869737400000000000000000000000000600082015250565b600061303b601383612a0d565b915061304682613005565b602082019050919050565b6000602082019050818103600083015261306a8161302e565b9050919050565b7f46696c6520686173206265656e2064656c657465640000000000000000000000600082015250565b60006130a7601583612a0d565b91506130b282613071565b602082019050919050565b600060208201905081810360008301526130d68161309a565b9050919050565b7f46696c6520616c72656164792064656c65746564000000000000000000000000600082015250565b6000613113601483612a0d565b915061311e826130dd565b602082019050919050565b6000602082019050818103600083015261314281613106565b9050919050565b7f596f7520646f6e277420686176652061636365737320746f207468697320666960008201527f6c65000000000000000000000000000000000000000000000000000000000000602082015250565b60006131a5602283612a0d565b91506131b082613149565b604082019050919050565b600060208201905081810360008301526131d481613198565b9050919050565b60006131e6826123fd565b91507fffffffffffffffffffffffffffffffffffffffffffffffffffffffffffffffff820361321857613217612ebf565b5b60018201905091905056fea26469706673582212201163775027c68cdd030eaaec1bcf0150ce8d114b714ca87c3e108264778e12fc64736f6c634300081c0033",
  "linkReferences": {},
  "deployedLinkReferences": {}
}