{
  "_format": "hh-sol-artifact-1",
  "contractName": "Upload",
  "sourceName": "contracts/Upload.sol",
  "abi": [
    {
      "inputs": [
        {
          "internalType": "string",
          "name": "url",
          "type": "string"
        }
      ],
      "name": "add",
      "outputs": [],
      "stateMutability": "nonpayable",
      "type": "function"
    },
    {
      "inputs": [
        {
          "internalType": "address",
          "name": "user",
          "type": "address"
        }
      ],
      "name": "allow",
      "outputs": [],
      "stateMutability": "nonpayable",
      "type": "function"
    },
    {
      "inputs": [
        {
          "internalType": "address",
          "name": "user",
          "type": "address"
        }
      ],
      "name": "disallow",
      "outputs": [],
      "stateMutability": "nonpayable",
      "type": "function"
    },
    {
      "inputs": [
        {
          "internalType": "address",
          "name": "_user",
          "type": "address"
        }
      ],
      "name": "display",
      "outputs": [
        {
          "internalType": "string[]",
          "name": "",
          "type": "string[]"
        }
      ],
      "stateMutability": "view",
      "type": "function"
    },
    {
      "inputs": [
        {
          "internalType": "address",
          "name": "",
          "type": "address"
        },
        {
          "internalType": "address",
          "name": "",
          "type": "address"
        }
      ],
      "name": "ownership",
      "outputs": [
        {
          "internalType": "bool",
          "name": "",
          "type": "bool"
        }
      ],
      "stateMutability": "view",
      "type": "function"
    },
    {
      "inputs": [],
      "name": "shareAccess",
      "outputs": [
        {
          "components": [
            {
              "internalType": "address",
              "name": "user",
              "type": "address"
            },
            {
              "internalType": "bool",
              "name": "access",
              "type": "bool"
            }
          ],
          "internalType": "struct Upload.Access[]",
          "name": "",
          "type": "tuple[]"
        }
      ],
      "stateMutability": "view",
      "type": "function"
    }
  ],
  "bytecode": "0x6080604052348015600f57600080fd5b506114468061001f6000396000f3fe608060405234801561001057600080fd5b50600436106100625760003560e01c8063974fe59114610067578063a9ed9cb814610097578063b0c8f9dc146100b3578063bc8bef81146100cf578063eb39113f146100ed578063ff9913e81461011d575b600080fd5b610081600480360381019061007c9190610bc9565b610139565b60405161008e9190610c24565b60405180910390f35b6100b160048036038101906100ac9190610c3f565b610168565b005b6100cd60048036038101906100c89190610db2565b610384565b005b6100d76103f8565b6040516100e49190610ef7565b60405180910390f35b61010760048036038101906101029190610c3f565b610501565b604051610114919061105a565b60405180910390f35b61013760048036038101906101329190610c3f565b610717565b005b60016020528160005260406000206020528060005260406000206000915091509054906101000a900460ff1681565b6000600160003373ffffffffffffffffffffffffffffffffffffffff1673ffffffffffffffffffffffffffffffffffffffff16815260200190815260200160002060008373ffffffffffffffffffffffffffffffffffffffff1673ffffffffffffffffffffffffffffffffffffffff16815260200190815260200160002060006101000a81548160ff02191690831515021790555060005b600260003373ffffffffffffffffffffffffffffffffffffffff1673ffffffffffffffffffffffffffffffffffffffff16815260200190815260200160002080549050811015610380578173ffffffffffffffffffffffffffffffffffffffff16600260003373ffffffffffffffffffffffffffffffffffffffff1673ffffffffffffffffffffffffffffffffffffffff16815260200190815260200160002082815481106102b2576102b161107c565b5b9060005260206000200160000160009054906101000a900473ffffffffffffffffffffffffffffffffffffffff1673ffffffffffffffffffffffffffffffffffffffff1603610373576000600260003373ffffffffffffffffffffffffffffffffffffffff1673ffffffffffffffffffffffffffffffffffffffff168152602001908152602001600020828154811061034e5761034d61107c565b5b9060005260206000200160000160146101000a81548160ff0219169083151502179055505b8080600101915050610200565b5050565b6000803373ffffffffffffffffffffffffffffffffffffffff1673ffffffffffffffffffffffffffffffffffffffff168152602001908152602001600020819080600181540180825580915050600190039060005260206000200160009091909190915090816103f491906112c1565b5050565b6060600260003373ffffffffffffffffffffffffffffffffffffffff1673ffffffffffffffffffffffffffffffffffffffff168152602001908152602001600020805480602002602001604051908101604052809291908181526020016000905b828210156104f8578382906000526020600020016040518060400160405290816000820160009054906101000a900473ffffffffffffffffffffffffffffffffffffffff1673ffffffffffffffffffffffffffffffffffffffff1673ffffffffffffffffffffffffffffffffffffffff1681526020016000820160149054906101000a900460ff16151515158152505081526020019060010190610459565b50505050905090565b60603373ffffffffffffffffffffffffffffffffffffffff168273ffffffffffffffffffffffffffffffffffffffff1614806105c35750600160008373ffffffffffffffffffffffffffffffffffffffff1673ffffffffffffffffffffffffffffffffffffffff16815260200190815260200160002060003373ffffffffffffffffffffffffffffffffffffffff1673ffffffffffffffffffffffffffffffffffffffff16815260200190815260200160002060009054906101000a900460ff165b610602576040517f08c379a00000000000000000000000000000000000000000000000000000000081526004016105f9906113f0565b60405180910390fd5b6000808373ffffffffffffffffffffffffffffffffffffffff1673ffffffffffffffffffffffffffffffffffffffff168152602001908152602001600020805480602002602001604051908101604052809291908181526020016000905b8282101561070c57838290600052602060002001805461067f906110da565b80601f01602080910402602001604051908101604052809291908181526020018280546106ab906110da565b80156106f85780601f106106cd576101008083540402835291602001916106f8565b820191906000526020600020905b8154815290600101906020018083116106db57829003601f168201915b505050505081526020019060010190610660565b505050509050919050565b60018060003373ffffffffffffffffffffffffffffffffffffffff1673ffffffffffffffffffffffffffffffffffffffff16815260200190815260200160002060008373ffffffffffffffffffffffffffffffffffffffff1673ffffffffffffffffffffffffffffffffffffffff16815260200190815260200160002060006101000a81548160ff021916908315150217905550600360003373ffffffffffffffffffffffffffffffffffffffff1673ffffffffffffffffffffffffffffffffffffffff16815260200190815260200160002060008273ffffffffffffffffffffffffffffffffffffffff1673ffffffffffffffffffffffffffffffffffffffff16815260200190815260200160002060009054906101000a900460ff16156109c35760005b600260003373ffffffffffffffffffffffffffffffffffffffff1673ffffffffffffffffffffffffffffffffffffffff168152602001908152602001600020805490508110156109bd578173ffffffffffffffffffffffffffffffffffffffff16600260003373ffffffffffffffffffffffffffffffffffffffff1673ffffffffffffffffffffffffffffffffffffffff16815260200190815260200160002082815481106108ef576108ee61107c565b5b9060005260206000200160000160009054906101000a900473ffffffffffffffffffffffffffffffffffffffff1673ffffffffffffffffffffffffffffffffffffffff16036109b0576001600260003373ffffffffffffffffffffffffffffffffffffffff1673ffffffffffffffffffffffffffffffffffffffff168152602001908152602001600020828154811061098b5761098a61107c565b5b9060005260206000200160000160146101000a81548160ff0219169083151502179055505b808060010191505061083d565b50610b54565b600260003373ffffffffffffffffffffffffffffffffffffffff1673ffffffffffffffffffffffffffffffffffffffff16815260200190815260200160002060405180604001604052808373ffffffffffffffffffffffffffffffffffffffff168152602001600115158152509080600181540180825580915050600190039060005260206000200160009091909190915060008201518160000160006101000a81548173ffffffffffffffffffffffffffffffffffffffff021916908373ffffffffffffffffffffffffffffffffffffffff16021790555060208201518160000160146101000a81548160ff02191690831515021790555050506001600360003373ffffffffffffffffffffffffffffffffffffffff1673ffffffffffffffffffffffffffffffffffffffff16815260200190815260200160002060008373ffffffffffffffffffffffffffffffffffffffff1673ffffffffffffffffffffffffffffffffffffffff16815260200190815260200160002060006101000a81548160ff0219169083151502179055505b50565b6000604051905090565b600080fd5b600080fd5b600073ffffffffffffffffffffffffffffffffffffffff82169050919050565b6000610b9682610b6b565b9050919050565b610ba681610b8b565b8114610bb157600080fd5b50565b600081359050610bc381610b9d565b92915050565b60008060408385031215610be057610bdf610b61565b5b6000610bee85828601610bb4565b9250506020610bff85828601610bb4565b9150509250929050565b60008115159050919050565b610c1e81610c09565b82525050565b6000602082019050610c396000830184610c15565b92915050565b600060208284031215610c5557610c54610b61565b5b6000610c6384828501610bb4565b91505092915050565b600080fd5b600080fd5b6000601f19601f8301169050919050565b7f4e487b7100000000000000000000000000000000000000000000000000000000600052604160045260246000fd5b610cbf82610c76565b810181811067ffffffffffffffff82111715610cde57610cdd610c87565b5b80604052505050565b6000610cf1610b57565b9050610cfd8282610cb6565b919050565b600067ffffffffffffffff821115610d1d57610d1c610c87565b5b610d2682610c76565b9050602081019050919050565b82818337600083830152505050565b6000610d55610d5084610d02565b610ce7565b905082815260208101848484011115610d7157610d70610c71565b5b610d7c848285610d33565b509392505050565b600082601f830112610d9957610d98610c6c565b5b8135610da9848260208601610d42565b91505092915050565b600060208284031215610dc857610dc7610b61565b5b600082013567ffffffffffffffff811115610de657610de5610b66565b5b610df284828501610d84565b91505092915050565b600081519050919050565b600082825260208201905092915050565b6000819050602082019050919050565b610e3081610b8b565b82525050565b610e3f81610c09565b82525050565b604082016000820151610e5b6000850182610e27565b506020820151610e6e6020850182610e36565b50505050565b6000610e808383610e45565b60408301905092915050565b6000602082019050919050565b6000610ea482610dfb565b610eae8185610e06565b9350610eb983610e17565b8060005b83811015610eea578151610ed18882610e74565b9750610edc83610e8c565b925050600181019050610ebd565b5085935050505092915050565b60006020820190508181036000830152610f118184610e99565b905092915050565b600081519050919050565b600082825260208201905092915050565b6000819050602082019050919050565b600081519050919050565b600082825260208201905092915050565b60005b83811015610f7f578082015181840152602081019050610f64565b60008484015250505050565b6000610f9682610f45565b610fa08185610f50565b9350610fb0818560208601610f61565b610fb981610c76565b840191505092915050565b6000610fd08383610f8b565b905092915050565b6000602082019050919050565b6000610ff082610f19565b610ffa8185610f24565b93508360208202850161100c85610f35565b8060005b8581101561104857848403895281516110298582610fc4565b945061103483610fd8565b925060208a01995050600181019050611010565b50829750879550505050505092915050565b600060208201905081810360008301526110748184610fe5565b905092915050565b7f4e487b7100000000000000000000000000000000000000000000000000000000600052603260045260246000fd5b7f4e487b7100000000000000000000000000000000000000000000000000000000600052602260045260246000fd5b600060028204905060018216806110f257607f821691505b602082108103611105576111046110ab565b5b50919050565b60008190508160005260206000209050919050565b60006020601f8301049050919050565b600082821b905092915050565b60006008830261116d7fffffffffffffffffffffffffffffffffffffffffffffffffffffffffffffffff82611130565b6111778683611130565b95508019841693508086168417925050509392505050565b6000819050919050565b6000819050919050565b60006111be6111b96111b48461118f565b611199565b61118f565b9050919050565b6000819050919050565b6111d8836111a3565b6111ec6111e4826111c5565b84845461113d565b825550505050565b600090565b6112016111f4565b61120c8184846111cf565b505050565b5b81811015611230576112256000826111f9565b600181019050611212565b5050565b601f821115611275576112468161110b565b61124f84611120565b8101602085101561125e578190505b61127261126a85611120565b830182611211565b50505b505050565b600082821c905092915050565b60006112986000198460080261127a565b1980831691505092915050565b60006112b18383611287565b9150826002028217905092915050565b6112ca82610f45565b67ffffffffffffffff8111156112e3576112e2610c87565b5b6112ed82546110da565b6112f8828285611234565b600060209050601f83116001811461132b5760008415611319578287015190505b61132385826112a5565b86555061138b565b601f1984166113398661110b565b60005b828110156113615784890151825560018201915060208501945060208101905061133c565b8683101561137e578489015161137a601f891682611287565b8355505b6001600288020188555050505b505050505050565b600082825260208201905092915050565b7f596f7520646f6e27742068617665206163636573730000000000000000000000600082015250565b60006113da601583611393565b91506113e5826113a4565b602082019050919050565b60006020820190508181036000830152611409816113cd565b905091905056fea26469706673582212202e253872b89e90444a76691bbe11908c1479ea38b5047cf1e863e493bae2222064736f6c634300081c0033",
  "linkReferences": {},
  "deployedLinkReferences": {}
}