{
  "_format": "hh-sol-artifact-1",
  "contractName": "FileNFT",
  "sourceName": "contracts/FileNFT.sol",
  "abi": [
    {
      "inputs": [],
      "stateMutability": "nonpayable",
      "type": "constructor"
    },
    {
      "inputs": [
        {
          "internalType": "address",
          "name": "sender",
          "type": "address"
        },
        {
          "internalType": "uint256",
          "name": "tokenId",
          "type": "uint256"
        },
        {
          "internalType": "address",
          "name": "owner",
          "type": "address"
        }
      ],
      "name": "ERC721IncorrectOwner",
      "type": "error"
    },
    {
      "inputs": [
        {
          "internalType": "address",
          "name": "operator",
          "type": "address"
        },
        {
          "internalType": "uint256",
          "name": "tokenId",
          "type": "uint256"
        }
      ],
      "name": "ERC721InsufficientApproval",
      "type": "error"
    },
    {
      "inputs": [
        {
          "internalType": "address",
          "name": "approver",
          "type": "address"
        }
      ],
      "name": "ERC721InvalidApprover",
      "type": "error"
    },
    {
      "inputs": [
        {
          "internalType": "address",
          "name": "operator",
          "type": "address"
        }
      ],
      "name": "ERC721InvalidOperator",
      "type": "error"
    },
    {
      "inputs": [
        {
          "internalType": "address",
          "name": "owner",
          "type": "address"
        }
      ],
      "name": "ERC721InvalidOwner",
      "type": "error"
    },
    {
      "inputs": [
        {
          "internalType": "address",
          "name": "receiver",
          "type": "address"
        }
      ],
      "name": "ERC721InvalidReceiver",
      "type": "error"
    },
    {
      "inputs": [
        {
          "internalType": "address",
          "name": "sender",
          "type": "address"
        }
      ],
      "name": "ERC721InvalidSender",
      "type": "error"
    },
    {
      "inputs": [
        {
          "internalType": "uint256",
          "name": "tokenId",
          "type": "uint256"
        }
      ],
      "name": "ERC721NonexistentToken",
      "type": "error"
    },
    {
      "inputs": [
        {
          "internalType": "address",
          "name": "owner",
          "type": "address"
        }
      ],
      "name": "OwnableInvalidOwner",
      "type": "error"
    },
    {
      "inputs": [
        {
          "internalType": "address",
          "name": "account",
          "type": "address"
        }
      ],
      "name": "OwnableUnauthorizedAccount",
      "type": "error"
    },
    {
      "anonymous": false,
      "inputs": [
        {
          "indexed": true,
          "internalType": "address",
          "name": "owner",
          "type": "address"
        },
        {
          "indexed": true,
          "internalType": "address",
          "name": "approved",
          "type": "address"
        },
        {
          "indexed": true,
          "internalType": "uint256",
          "name": "tokenId",
          "type": "uint256"
        }
      ],
      "name": "Approval",
      "type": "event"
    },
    {
      "anonymous": false,
      "inputs": [
        {
          "indexed": true,
          "internalType": "address",
          "name": "owner",
          "type": "address"
        },
        {
          "indexed": true,
          "internalType": "address",
          "name": "operator",
          "type": "address"
        },
        {
          "indexed": false,
          "internalType": "bool",
          "name": "approved",
          "type": "bool"
        }
      ],
      "name": "ApprovalForAll",
      "type": "event"
    },
    {
      "anonymous": false,
      "inputs": [
        {
          "indexed": false,
          "internalType": "uint256",
          "name": "_fromTokenId",
          "type": "uint256"
        },
        {
          "indexed": false,
          "internalType": "uint256",
          "name": "_toTokenId",
          "type": "uint256"
        }
      ],
      "name": "BatchMetadataUpdate",
      "type": "event"
    },
    {
      "anonymous": false,
      "inputs": [
        {
          "indexed": true,
          "internalType": "address",
          "name": "creator",
          "type": "address"
        },
        {
          "indexed": true,
          "internalType": "uint256",
          "name": "tokenId",
          "type": "uint256"
        },
        {
          "indexed": false,
          "internalType": "string",
          "name": "tokenURI",
          "type": "string"
        }
      ],
      "name": "FileMinted",
      "type": "event"
    },
    {
      "anonymous": false,
      "inputs": [
        {
          "indexed": false,
          "internalType": "uint256",
          "name": "_tokenId",
          "type": "uint256"
        }
      ],
      "name": "MetadataUpdate",
      "type": "event"
    },
    {
      "anonymous": false,
      "inputs": [
        {
          "indexed": true,
          "internalType": "address",
          "name": "previousOwner",
          "type": "address"
        },
        {
          "indexed": true,
          "internalType": "address",
          "name": "newOwner",
          "type": "address"
        }
      ],
      "name": "OwnershipTransferred",
      "type": "event"
    },
    {
      "anonymous": false,
      "inputs": [
        {
          "indexed": true,
          "internalType": "address",
          "name": "from",
          "type": "address"
        },
        {
          "indexed": true,
          "internalType": "address",
          "name": "to",
          "type": "address"
        },
        {
          "indexed": true,
          "internalType": "uint256",
          "name": "tokenId",
          "type": "uint256"
        }
      ],
      "name": "Transfer",
      "type": "event"
    },
    {
      "inputs": [
        {
          "internalType": "address",
          "name": "to",
          "type": "address"
        },
        {
          "internalType": "uint256",
          "name": "tokenId",
          "type": "uint256"
        }
      ],
      "name": "approve",
      "outputs": [],
      "stateMutability": "nonpayable",
      "type": "function"
    },
    {
      "inputs": [
        {
          "internalType": "address",
          "name": "owner",
          "type": "address"
        }
      ],
      "name": "balanceOf",
      "outputs": [
        {
          "internalType": "uint256",
          "name": "",
          "type": "uint256"
        }
      ],
      "stateMutability": "view",
      "type": "function"
    },
    {
      "inputs": [
        {
          "internalType": "string",
          "name": "",
          "type": "string"
        }
      ],
      "name": "fileToToken",
      "outputs": [
        {
          "internalType": "uint256",
          "name": "",
          "type": "uint256"
        }
      ],
      "stateMutability": "view",
      "type": "function"
    },
    {
      "inputs": [
        {
          "internalType": "uint256",
          "name": "tokenId",
          "type": "uint256"
        }
      ],
      "name": "getApproved",
      "outputs": [
        {
          "internalType": "address",
          "name": "",
          "type": "address"
        }
      ],
      "stateMutability": "view",
      "type": "function"
    },
    {
      "inputs": [
        {
          "internalType": "uint256",
          "name": "tokenId",
          "type": "uint256"
        }
      ],
      "name": "getHistory",
      "outputs": [
        {
          "components": [
            {
              "internalType": "address",
              "name": "owner",
              "type": "address"
            },
            {
              "internalType": "uint256",
              "name": "timestamp",
              "type": "uint256"
            }
          ],
          "internalType": "struct FileNFT.Provenance[]",
          "name": "",
          "type": "tuple[]"
        }
      ],
      "stateMutability": "view",
      "type": "function"
    },
    {
      "inputs": [
        {
          "internalType": "address",
          "name": "owner",
          "type": "address"
        },
        {
          "internalType": "address",
          "name": "operator",
          "type": "address"
        }
      ],
      "name": "isApprovedForAll",
      "outputs": [
        {
          "internalType": "bool",
          "name": "",
          "type": "bool"
        }
      ],
      "stateMutability": "view",
      "type": "function"
    },
    {
      "inputs": [
        {
          "internalType": "string",
          "name": "metadataURI",
          "type": "string"
        },
        {
          "internalType": "string",
          "name": "fileUrl",
          "type": "string"
        }
      ],
      "name": "mintFileNFT",
      "outputs": [
        {
          "internalType": "uint256",
          "name": "",
          "type": "uint256"
        }
      ],
      "stateMutability": "nonpayable",
      "type": "function"
    },
    {
      "inputs": [],
      "name": "name",
      "outputs": [
        {
          "internalType": "string",
          "name": "",
          "type": "string"
        }
      ],
      "stateMutability": "view",
      "type": "function"
    },
    {
      "inputs": [
        {
          "internalType": "uint256",
          "name": "",
          "type": "uint256"
        }
      ],
      "name": "nftInfo",
      "outputs": [
        {
          "internalType": "address",
          "name": "creator",
          "type": "address"
        },
        {
          "internalType": "string",
          "name": "fileUrl",
          "type": "string"
        },
        {
          "internalType": "uint256",
          "name": "mintedAt",
          "type": "uint256"
        }
      ],
      "stateMutability": "view",
      "type": "function"
    },
    {
      "inputs": [],
      "name": "owner",
      "outputs": [
        {
          "internalType": "address",
          "name": "",
          "type": "address"
        }
      ],
      "stateMutability": "view",
      "type": "function"
    },
    {
      "inputs": [
        {
          "internalType": "uint256",
          "name": "tokenId",
          "type": "uint256"
        }
      ],
      "name": "ownerOf",
      "outputs": [
        {
          "internalType": "address",
          "name": "",
          "type": "address"
        }
      ],
      "stateMutability": "view",
      "type": "function"
    },
    {
      "inputs": [
        {
          "internalType": "uint256",
          "name": "",
          "type": "uint256"
        },
        {
          "internalType": "uint256",
          "name": "",
          "type": "uint256"
        }
      ],
      "name": "ownershipHistory",
      "outputs": [
        {
          "internalType": "address",
          "name": "owner",
          "type": "address"
        },
        {
          "internalType": "uint256",
          "name": "timestamp",
          "type": "uint256"
        }
      ],
      "stateMutability": "view",
      "type": "function"
    },
    {
      "inputs": [],
      "name": "renounceOwnership",
      "outputs": [],
      "stateMutability": "nonpayable",
      "type": "function"
    },
    {
      "inputs": [
        {
          "internalType": "address",
          "name": "from",
          "type": "address"
        },
        {
          "internalType": "address",
          "name": "to",
          "type": "address"
        },
        {
          "internalType": "uint256",
          "name": "tokenId",
          "type": "uint256"
        }
      ],
      "name": "safeTransferFrom",
      "outputs": [],
      "stateMutability": "nonpayable",
      "type": "function"
    },
    {
      "inputs": [
        {
          "internalType": "address",
          "name": "from",
          "type": "address"
        },
        {
          "internalType": "address",
          "name": "to",
          "type": "address"
        },
        {
          "internalType": "uint256",
          "name": "tokenId",
          "type": "uint256"
        },
        {
          "internalType": "bytes",
          "name": "data",
          "type": "bytes"
        }
      ],
      "name": "safeTransferFrom",
      "outputs": [],
      "stateMutability": "nonpayable",
      "type": "function"
    },
    {
      "inputs": [
        {
          "internalType": "address",
          "name": "operator",
          "type": "address"
        },
        {
          "internalType": "bool",
          "name": "approved",
          "type": "bool"
        }
      ],
      "name": "setApprovalForAll",
      "outputs": [],
      "stateMutability": "nonpayable",
      "type": "function"
    },
    {
      "inputs": [
        {
          "internalType": "bytes4",
          "name": "interfaceId",
          "type": "bytes4"
        }
      ],
      "name": "supportsInterface",
      "outputs": [
        {
          "internalType": "bool",
          "name": "",
          "type": "bool"
        }
      ],
      "stateMutability": "view",
      "type": "function"
    },
    {
      "inputs": [],
      "name": "symbol",
      "outputs": [
        {
          "internalType": "string",
          "name": "",
          "type": "string"
        }
      ],
      "stateMutability": "view",
      "type": "function"
    },
    {
      "inputs": [],
      "name": "tokenCounter",
      "outputs": [
        {
          "internalType": "uint256",
          "name": "",
          "type": "uint256"
        }
      ],
      "stateMutability": "view",
      "type": "function"
    },
    {
      "inputs": [
        {
          "internalType": "uint256",
          "name": "tokenId",
          "type": "uint256"
        }
      ],
      "name": "tokenURI",
      "outputs": [
        {
          "internalType": "string",
          "name": "",
          "type": "string"
        }
      ],
      "stateMutability": "view",
      "type": "function"
    },
    {
      "inputs": [
        {
          "internalType": "address",
          "name": "from",
          "type": "address"
        },
        {
          "internalType": "address",
          "name": "to",
          "type": "address"
        },
        {
          "internalType": "uint256",
          "name": "tokenId",
          "type": "uint256"
        }
      ],
      "name": "transferFrom",
      "outputs": [],
      "stateMutability": "nonpayable",
      "type": "function"
    },
    {
      "inputs": [
        {
          "internalType": "address",
          "name": "to",
          "type": "address"
        },
        {
          "internalType": "uint256",
          "name": "tokenId",
          "type": "uint256"
        }
      ],
      "name": "transferNFT",
      "outputs": [],
      "stateMutability": "nonpayable",
      "type": "function"
    },
    {
      "inputs": [
        {
          "internalType": "address",
          "name": "newOwner",
          "type": "address"
        }
      ],
      "name": "transferOwnership",
      "outputs": [],
      "stateMutability": "nonpayable",
      "type": "function"
    }
  ],
  "bytecode": "0x608060405234801562000010575f80fd5b50336040518060400160405280601481526020017f446563656e7472616c697a656446696c654e465400000000000000000000000081525060405180604001604052806005815260200164111193919560da1b815250815f9081620000769190620001bb565b506001620000858282620001bb565b5050506001600160a01b038116620000b657604051631e4fbdf760e01b81525f600482015260240160405180910390fd5b620000c181620000cc565b505f60085562000287565b600780546001600160a01b038381166001600160a01b0319831681179093556040519116919082907f8be0079c531659141344cd1fd0a4f28419497f9722a3daafe3b4186f6b6457e0905f90a35050565b634e487b7160e01b5f52604160045260245ffd5b600181811c908216806200014657607f821691505b6020821081036200016557634e487b7160e01b5f52602260045260245ffd5b50919050565b601f821115620001b657805f5260205f20601f840160051c81016020851015620001925750805b601f840160051c820191505b81811015620001b3575f81556001016200019e565b50505b505050565b81516001600160401b03811115620001d757620001d76200011d565b620001ef81620001e8845462000131565b846200016b565b602080601f83116001811462000225575f84156200020d5750858301515b5f19600386901b1c1916600185901b1785556200027f565b5f85815260208120601f198616915b82811015620002555788860151825594840194600190910190840162000234565b50858210156200027357878501515f19600388901b60f8161c191681555b505060018460011b0185555b505050505050565b61195080620002955f395ff3fe608060405234801561000f575f80fd5b5060043610610148575f3560e01c80637a6cd9cb116100bf578063c8691b2a11610079578063c8691b2a146102dd578063c87b56dd146102fd578063c9cf2adc14610310578063d082e38114610342578063e985e9c51461034b578063f2fde38b1461035e575f80fd5b80637a6cd9cb146102605780638da5cb5b1461028b57806394ab67fe1461029c57806395d89b41146102af578063a22cb465146102b7578063b88d4fde146102ca575f80fd5b806323b872dd1161011057806323b872dd146101eb57806342842e0e146101fe57806353dbf8b8146102115780636352211e1461023257806370a0823114610245578063715018a614610258575f80fd5b806301ffc9a71461014c57806306fdde0314610174578063081812fc14610189578063095ea7b3146101b45780631f8bc790146101c9575b5f80fd5b61015f61015a366004611336565b610371565b60405190151581526020015b60405180910390f35b61017c61039b565b60405161016b919061139e565b61019c6101973660046113b0565b61042a565b6040516001600160a01b03909116815260200161016b565b6101c76101c23660046113e2565b610451565b005b6101dc6101d73660046113b0565b610460565b60405161016b9392919061140a565b6101c76101f936600461143d565b610512565b6101c761020c36600461143d565b6105a0565b61022461021f36600461151b565b6105bf565b60405190815260200161016b565b61019c6102403660046113b0565b61070f565b61022461025336600461157b565b610719565b6101c761075e565b61022461026e366004611594565b805160208183018101805160098252928201919093012091525481565b6007546001600160a01b031661019c565b6101c76102aa3660046113e2565b610771565b61017c61082b565b6101c76102c53660046115c6565b61083a565b6101c76102d83660046115ff565b610845565b6102f06102eb3660046113b0565b61085d565b60405161016b9190611676565b61017c61030b3660046113b0565b6108e1565b61032361031e3660046116cd565b610962565b604080516001600160a01b03909316835260208301919091520161016b565b61022460085481565b61015f6103593660046116ed565b6109a4565b6101c761036c36600461157b565b6109d1565b5f6001600160e01b03198216632483248360e11b1480610395575061039582610a0e565b92915050565b60605f80546103a99061171e565b80601f01602080910402602001604051908101604052809291908181526020018280546103d59061171e565b80156104205780601f106103f757610100808354040283529160200191610420565b820191905f5260205f20905b81548152906001019060200180831161040357829003601f168201915b5050505050905090565b5f61043482610a5d565b505f828152600460205260409020546001600160a01b0316610395565b61045c828233610a95565b5050565b600a6020525f9081526040902080546001820180546001600160a01b03909216929161048b9061171e565b80601f01602080910402602001604051908101604052809291908181526020018280546104b79061171e565b80156105025780601f106104d957610100808354040283529160200191610502565b820191905f5260205f20905b8154815290600101906020018083116104e557829003601f168201915b5050505050908060020154905083565b6001600160a01b03821661054057604051633250574960e11b81525f60048201526024015b60405180910390fd5b5f61054c838333610aa2565b9050836001600160a01b0316816001600160a01b03161461059a576040516364283d7b60e01b81526001600160a01b0380861660048301526024820184905282166044820152606401610537565b50505050565b6105ba83838360405180602001604052805f815250610845565b505050565b6008545f906105ce3382610b94565b6105d88185610bad565b806009846040516105e99190611756565b90815260408051602092819003830181209390935560608301815233835281830186815242848301525f858152600a9093529120825181546001600160a01b0319166001600160a01b039091161781559051600182019061064a90826117b5565b506040918201516002918201555f838152600b602090815283822084518086019095523385524285830190815281546001808201845592855292842095519290940290940180546001600160a01b0319166001600160a01b039092169190911781559151919092015560088054916106c183611871565b919050555080336001600160a01b03167f6898cab04812f7eaadfe860489a2428b312c97972fdebf5712ec051c77b9cec586604051610700919061139e565b60405180910390a39392505050565b5f61039582610a5d565b5f6001600160a01b038216610743576040516322718ad960e21b81525f6004820152602401610537565b506001600160a01b03165f9081526003602052604090205490565b610766610bfc565b61076f5f610c29565b565b3361077b8261070f565b6001600160a01b0316146107bd5760405162461bcd60e51b81526020600482015260096024820152682737ba1037bbb732b960b91b6044820152606401610537565b6107c83383836105a0565b5f908152600b6020908152604080832081518083019092526001600160a01b03948516825242828401908152815460018082018455928652939094209151600290930290910180546001600160a01b031916929094169190911783559051910155565b6060600180546103a99061171e565b61045c338383610c7a565b610850848484610512565b61059a3385858585610d41565b6060600b5f8381526020019081526020015f20805480602002602001604051908101604052809291908181526020015f905b828210156108d6575f848152602090819020604080518082019091526002850290910180546001600160a01b0316825260019081015482840152908352909201910161088f565b505050509050919050565b60606108ec82610a5d565b505f61090260408051602081019091525f815290565b90505f61090e84610e69565b905081515f0361091f579392505050565b805115610951578181604051602001610939929190611895565b60405160208183030381529060405292505050919050565b61095a84610f08565b949350505050565b600b602052815f5260405f20818154811061097b575f80fd5b5f918252602090912060029091020180546001909101546001600160a01b039091169250905082565b6001600160a01b039182165f90815260056020908152604080832093909416825291909152205460ff1690565b6109d9610bfc565b6001600160a01b038116610a0257604051631e4fbdf760e01b81525f6004820152602401610537565b610a0b81610c29565b50565b5f6001600160e01b031982166380ac58cd60e01b1480610a3e57506001600160e01b03198216635b5e139f60e01b145b8061039557506301ffc9a760e01b6001600160e01b0319831614610395565b5f818152600260205260408120546001600160a01b03168061039557604051637e27328960e01b815260048101849052602401610537565b6105ba8383836001610f79565b5f828152600260205260408120546001600160a01b0390811690831615610ace57610ace81848661107d565b6001600160a01b03811615610b0857610ae95f855f80610f79565b6001600160a01b0381165f90815260036020526040902080545f190190555b6001600160a01b03851615610b36576001600160a01b0385165f908152600360205260409020805460010190555b5f8481526002602052604080822080546001600160a01b0319166001600160a01b0389811691821790925591518793918516917fddf252ad1be2c89b69c2b068fc378daa952ba7f163c4a11628f55a4df523b3ef91a4949350505050565b61045c828260405180602001604052805f8152506110e1565b5f828152600660205260409020610bc482826117b5565b506040518281527ff8e1a15aba9398e019f0b49df1a4fde98ee17ae345cb5f6b5e2c27f5033e8ce79060200160405180910390a15050565b6007546001600160a01b0316331461076f5760405163118cdaa760e01b8152336004820152602401610537565b600780546001600160a01b038381166001600160a01b0319831681179093556040519116919082907f8be0079c531659141344cd1fd0a4f28419497f9722a3daafe3b4186f6b6457e0905f90a35050565b6001600160a01b038316610ca35760405163a9fbf51f60e01b81525f6004820152602401610537565b6001600160a01b038216610cd557604051630b61174360e31b81526001600160a01b0383166004820152602401610537565b6001600160a01b038381165f81815260056020908152604080832094871680845294825291829020805460ff191686151590811790915591519182527f17307eab39ab6107e8899845ad3d59bd9653f200f220920489ca2b5937696c31910160405180910390a3505050565b6001600160a01b0383163b15610e6257604051630a85bd0160e11b81526001600160a01b0384169063150b7a0290610d839088908890879087906004016118c3565b6020604051808303815f875af1925050508015610dbd575060408051601f3d908101601f19168201909252610dba918101906118ff565b60015b610e24573d808015610dea576040519150601f19603f3d011682016040523d82523d5f602084013e610def565b606091505b5080515f03610e1c57604051633250574960e11b81526001600160a01b0385166004820152602401610537565b805160208201fd5b6001600160e01b03198116630a85bd0160e11b14610e6057604051633250574960e11b81526001600160a01b0385166004820152602401610537565b505b5050505050565b5f818152600660205260409020805460609190610e859061171e565b80601f0160208091040260200160405190810160405280929190818152602001828054610eb19061171e565b8015610efc5780601f10610ed357610100808354040283529160200191610efc565b820191905f5260205f20905b815481529060010190602001808311610edf57829003601f168201915b50505050509050919050565b6060610f1382610a5d565b505f610f2960408051602081019091525f815290565b90505f815111610f475760405180602001604052805f815250610f72565b80610f51846110f8565b604051602001610f62929190611895565b6040516020818303038152906040525b9392505050565b8080610f8d57506001600160a01b03821615155b1561104e575f610f9c84610a5d565b90506001600160a01b03831615801590610fc85750826001600160a01b0316816001600160a01b031614155b8015610fdb5750610fd981846109a4565b155b156110045760405163a9fbf51f60e01b81526001600160a01b0384166004820152602401610537565b811561104c5783856001600160a01b0316826001600160a01b03167f8c5be1e5ebec7d5bd14f71427d1e84f3dd0314c0f7b2291e5b200ac8c7c3b92560405160405180910390a45b505b50505f90815260046020526040902080546001600160a01b0319166001600160a01b0392909216919091179055565b611088838383611188565b6105ba576001600160a01b0383166110b657604051637e27328960e01b815260048101829052602401610537565b60405163177e802f60e01b81526001600160a01b038316600482015260248101829052604401610537565b6110eb83836111e9565b6105ba335f858585610d41565b60605f6111048361124a565b60010190505f8167ffffffffffffffff81111561112357611123611476565b6040519080825280601f01601f19166020018201604052801561114d576020820181803683370190505b5090508181016020015b5f19016f181899199a1a9b1b9c1cb0b131b232b360811b600a86061a8153600a850494508461115757509392505050565b5f6001600160a01b0383161580159061095a5750826001600160a01b0316846001600160a01b031614806111c157506111c184846109a4565b8061095a5750505f908152600460205260409020546001600160a01b03908116911614919050565b6001600160a01b03821661121257604051633250574960e11b81525f6004820152602401610537565b5f61121e83835f610aa2565b90506001600160a01b038116156105ba576040516339e3563760e11b81525f6004820152602401610537565b5f8072184f03e93ff9f4daa797ed6e38ed64bf6a1f0160401b83106112885772184f03e93ff9f4daa797ed6e38ed64bf6a1f0160401b830492506040015b6d04ee2d6d415b85acef810000000083106112b4576d04ee2d6d415b85acef8100000000830492506020015b662386f26fc1000083106112d257662386f26fc10000830492506010015b6305f5e10083106112ea576305f5e100830492506008015b61271083106112fe57612710830492506004015b60648310611310576064830492506002015b600a83106103955760010192915050565b6001600160e01b031981168114610a0b575f80fd5b5f60208284031215611346575f80fd5b8135610f7281611321565b5f5b8381101561136b578181015183820152602001611353565b50505f910152565b5f815180845261138a816020860160208601611351565b601f01601f19169290920160200192915050565b602081525f610f726020830184611373565b5f602082840312156113c0575f80fd5b5035919050565b80356001600160a01b03811681146113dd575f80fd5b919050565b5f80604083850312156113f3575f80fd5b6113fc836113c7565b946020939093013593505050565b6001600160a01b03841681526060602082018190525f9061142d90830185611373565b9050826040830152949350505050565b5f805f6060848603121561144f575f80fd5b611458846113c7565b9250611466602085016113c7565b9150604084013590509250925092565b634e487b7160e01b5f52604160045260245ffd5b5f67ffffffffffffffff808411156114a4576114a4611476565b604051601f8501601f19908116603f011681019082821181831017156114cc576114cc611476565b816040528093508581528686860111156114e4575f80fd5b858560208301375f602087830101525050509392505050565b5f82601f83011261150c575f80fd5b610f728383356020850161148a565b5f806040838503121561152c575f80fd5b823567ffffffffffffffff80821115611543575f80fd5b61154f868387016114fd565b93506020850135915080821115611564575f80fd5b50611571858286016114fd565b9150509250929050565b5f6020828403121561158b575f80fd5b610f72826113c7565b5f602082840312156115a4575f80fd5b813567ffffffffffffffff8111156115ba575f80fd5b61095a848285016114fd565b5f80604083850312156115d7575f80fd5b6115e0836113c7565b9150602083013580151581146115f4575f80fd5b809150509250929050565b5f805f8060808587031215611612575f80fd5b61161b856113c7565b9350611629602086016113c7565b925060408501359150606085013567ffffffffffffffff81111561164b575f80fd5b8501601f8101871361165b575f80fd5b61166a8782356020840161148a565b91505092959194509250565b602080825282518282018190525f919060409081850190868401855b828110156116c057815180516001600160a01b03168552860151868501529284019290850190600101611692565b5091979650505050505050565b5f80604083850312156116de575f80fd5b50508035926020909101359150565b5f80604083850312156116fe575f80fd5b611707836113c7565b9150611715602084016113c7565b90509250929050565b600181811c9082168061173257607f821691505b60208210810361175057634e487b7160e01b5f52602260045260245ffd5b50919050565b5f8251611767818460208701611351565b9190910192915050565b601f8211156105ba57805f5260205f20601f840160051c810160208510156117965750805b601f840160051c820191505b81811015610e62575f81556001016117a2565b815167ffffffffffffffff8111156117cf576117cf611476565b6117e3816117dd845461171e565b84611771565b602080601f831160018114611816575f84156117ff5750858301515b5f19600386901b1c1916600185901b178555610e60565b5f85815260208120601f198616915b8281101561184457888601518255948401946001909101908401611825565b508582101561186157878501515f19600388901b60f8161c191681555b5050505050600190811b01905550565b5f6001820161188e57634e487b7160e01b5f52601160045260245ffd5b5060010190565b5f83516118a6818460208801611351565b8351908301906118ba818360208801611351565b01949350505050565b6001600160a01b03858116825284166020820152604081018390526080606082018190525f906118f590830184611373565b9695505050505050565b5f6020828403121561190f575f80fd5b8151610f728161132156fea2646970667358221220b39e2801e71ee08ece3e71a177192ed9603ac12e2621f83acc2b5f6a8e7293d564736f6c63430008180033",
  "linkReferences": {},
  "deployedLinkReferences": {}
}